{
  "_format": "hh-sol-artifact-1",
  "contractName": "SendReceive",
  "sourceName": "contracts/SendReceive.sol",
  "abi": [
    {
      "inputs": [
        {
          "internalType": "address",
          "name": "gateway_",
          "type": "address"
        },
        {
          "internalType": "address",
          "name": "gasReceiver_",
          "type": "address"
        },
        {
          "internalType": "string",
          "name": "chainName_",
          "type": "string"
        }
      ],
      "stateMutability": "nonpayable",
      "type": "constructor"
    },
    {
      "inputs": [],
      "name": "InvalidAddress",
      "type": "error"
    },
    {
      "inputs": [],
      "name": "NotApprovedByGateway",
      "type": "error"
    },
    {
      "inputs": [],
      "name": "chainName",
      "outputs": [
        {
          "internalType": "string",
          "name": "",
          "type": "string"
        }
      ],
      "stateMutability": "view",
      "type": "function"
    },
    {
      "inputs": [
        {
          "internalType": "bytes32",
          "name": "commandId",
          "type": "bytes32"
        },
        {
          "internalType": "string",
          "name": "sourceChain",
          "type": "string"
        },
        {
          "internalType": "string",
          "name": "sourceAddress",
          "type": "string"
        },
        {
          "internalType": "bytes",
          "name": "payload",
          "type": "bytes"
        }
      ],
      "name": "execute",
      "outputs": [],
      "stateMutability": "nonpayable",
      "type": "function"
    },
    {
      "inputs": [
        {
          "internalType": "bytes32",
          "name": "commandId",
          "type": "bytes32"
        },
        {
          "internalType": "string",
          "name": "sourceChain",
          "type": "string"
        },
        {
          "internalType": "string",
          "name": "sourceAddress",
          "type": "string"
        },
        {
          "internalType": "bytes",
          "name": "payload",
          "type": "bytes"
        },
        {
          "internalType": "string",
          "name": "tokenSymbol",
          "type": "string"
        },
        {
          "internalType": "uint256",
          "name": "amount",
          "type": "uint256"
        }
      ],
      "name": "executeWithToken",
      "outputs": [],
      "stateMutability": "nonpayable",
      "type": "function"
    },
    {
      "inputs": [],
      "name": "gasService",
      "outputs": [
        {
          "internalType": "contract IAxelarGasService",
          "name": "",
          "type": "address"
        }
      ],
      "stateMutability": "view",
      "type": "function"
    },
    {
      "inputs": [],
      "name": "gateway",
      "outputs": [
        {
          "internalType": "contract IAxelarGateway",
          "name": "",
          "type": "address"
        }
      ],
      "stateMutability": "view",
      "type": "function"
    },
    {
      "inputs": [
        {
          "internalType": "string",
          "name": "destinationChain",
          "type": "string"
        },
        {
          "internalType": "string",
          "name": "destinationAddress",
          "type": "string"
        },
        {
          "internalType": "string",
          "name": "message",
          "type": "string"
        }
      ],
      "name": "send",
      "outputs": [],
      "stateMutability": "payable",
      "type": "function"
    },
    {
      "inputs": [],
      "name": "storedMessage",
      "outputs": [
        {
          "internalType": "string",
          "name": "sender",
          "type": "string"
        },
        {
          "internalType": "string",
          "name": "message",
          "type": "string"
        }
      ],
      "stateMutability": "view",
      "type": "function"
    }
  ],
  "bytecode": "0x60c06040523480156200001157600080fd5b506040516200178638038062001786833981016040819052620000349162000168565b826001600160a01b0381166200005d5760405163e6c4247b60e01b815260040160405180910390fd5b6001600160a01b03908116608052821660a0528051620000859060009060208401906200008f565b50505050620002a9565b8280546200009d906200026c565b90600052602060002090601f016020900481019282620000c157600085556200010c565b82601f10620000dc57805160ff19168380011785556200010c565b828001600101855582156200010c579182015b828111156200010c578251825591602001919060010190620000ef565b506200011a9291506200011e565b5090565b5b808211156200011a57600081556001016200011f565b80516001600160a01b03811681146200014d57600080fd5b919050565b634e487b7160e01b600052604160045260246000fd5b6000806000606084860312156200017e57600080fd5b620001898462000135565b925060206200019a81860162000135565b60408601519093506001600160401b0380821115620001b857600080fd5b818701915087601f830112620001cd57600080fd5b815181811115620001e257620001e262000152565b604051601f8201601f19908116603f011681019083821181831017156200020d576200020d62000152565b816040528281528a868487010111156200022657600080fd5b600093505b828410156200024a57848401860151818501870152928501926200022b565b828411156200025c5760008684830101525b8096505050505050509250925092565b600181811c908216806200028157607f821691505b60208210811415620002a357634e487b7160e01b600052602260045260246000fd5b50919050565b60805160a05161149c620002ea6000396000818161014f015261044a0152600081816087015281816101c50152818161034501526104e7015261149c6000f3fe6080604052600436106100705760003560e01c8063491606581161004e578063491606581461010a5780635615264d1461012a5780636a22d8cc1461013d578063b2f6cbbe1461017157600080fd5b8063116191b6146100755780631a98b2e0146100c65780631c93b03a146100e8575b600080fd5b34801561008157600080fd5b506100a97f000000000000000000000000000000000000000000000000000000000000000081565b6040516001600160a01b0390911681526020015b60405180910390f35b3480156100d257600080fd5b506100e66100e1366004610c66565b610194565b005b3480156100f457600080fd5b506100fd610286565b6040516100bd9190610d9c565b34801561011657600080fd5b506100e6610125366004610db6565b610314565b6100e6610138366004610e5a565b61040b565b34801561014957600080fd5b506100a97f000000000000000000000000000000000000000000000000000000000000000081565b34801561017d57600080fd5b50610186610563565b6040516100bd929190610ef4565b600085856040516101a6929190610f22565b604051908190038120631876eed960e01b825291506001600160a01b037f00000000000000000000000000000000000000000000000000000000000000001690631876eed99061020a908e908e908e908e908e9089908d908d908d90600401610f5b565b602060405180830381600087803b15801561022457600080fd5b505af1158015610238573d6000803e3d6000fd5b505050506040513d601f19601f8201168201806040525081019061025c9190610fba565b61027957604051631403112d60e21b815260040160405180910390fd5b5050505050505050505050565b6000805461029390610fdc565b80601f01602080910402602001604051908101604052809291908181526020018280546102bf90610fdc565b801561030c5780601f106102e15761010080835404028352916020019161030c565b820191906000526020600020905b8154815290600101906020018083116102ef57829003601f168201915b505050505081565b60008282604051610326929190610f22565b604051908190038120635f6970c360e01b825291506001600160a01b037f00000000000000000000000000000000000000000000000000000000000000001690635f6970c390610384908b908b908b908b908b908990600401611017565b602060405180830381600087803b15801561039e57600080fd5b505af11580156103b2573d6000803e3d6000fd5b505050506040513d601f19601f820116820180604052508101906103d69190610fba565b6103f357604051631403112d60e21b815260040160405180910390fd5b610401878787878787610683565b5050505050505050565b6000610416336106da565b838360405160200161042a93929190611058565b6040516020818303038152906040529050600061044682610925565b90507f00000000000000000000000000000000000000000000000000000000000000006001600160a01b0316630c93e3bb34308b8b8b8b88336040518963ffffffff1660e01b81526004016104a19796959493929190611088565b6000604051808303818588803b1580156104ba57600080fd5b505af11580156104ce573d6000803e3d6000fd5b5050604051631c92115f60e01b81526001600160a01b037f0000000000000000000000000000000000000000000000000000000000000000169350631c92115f925061052791508b908b908b908b9088906004016110ea565b600060405180830381600087803b15801561054157600080fd5b505af1158015610555573d6000803e3d6000fd5b505050505050505050505050565b60018054819061057290610fdc565b80601f016020809104026020016040519081016040528092919081815260200182805461059e90610fdc565b80156105eb5780601f106105c0576101008083540402835291602001916105eb565b820191906000526020600020905b8154815290600101906020018083116105ce57829003601f168201915b50505050509080600101805461060090610fdc565b80601f016020809104026020016040519081016040528092919081815260200182805461062c90610fdc565b80156106795780601f1061064e57610100808354040283529160200191610679565b820191906000526020600020905b81548152906001019060200180831161065c57829003601f168201915b5050505050905082565b600080610692838501856111d4565b6040805180820190915282815260208082018390528351939550919350916001916106c1918391870190610b84565b5060208281015180516102799260018501920190610b84565b604051606082811b6bffffffffffffffffffffffff191660208301529060009060340160408051601f198184030181528282528051838301909252601083526f181899199a1a9b1b9c1cb0b131b232b360811b6020840152805190935090919060009061074890600261124e565b61075390600261126d565b67ffffffffffffffff81111561076b5761076b611131565b6040519080825280601f01601f191660200182016040528015610795576020820181803683370190505b509050600360fc1b816000815181106107b0576107b0611285565b60200101906001600160f81b031916908160001a905350600f60fb1b816001815181106107df576107df611285565b60200101906001600160f81b031916908160001a90535060005b8381101561091b5782600486838151811061081657610816611285565b016020015182516001600160f81b031990911690911c60f81c90811061083e5761083e611285565b01602001516001600160f81b0319168261085983600261124e565b61086490600261126d565b8151811061087457610874611285565b60200101906001600160f81b031916908160001a9053508285828151811061089e5761089e611285565b602091010151815160f89190911c600f169081106108be576108be611285565b01602001516001600160f81b031916826108d983600261124e565b6108e490600361126d565b815181106108f4576108f4611285565b60200101906001600160f81b031916908160001a9053506109148161129b565b90506107f9565b5095945050505050565b6060600080610933306106da565b84604051602001610946939291906112b6565b60408051808303601f19018152600380845260808401909252925060009190816020015b606081526020019060019003908161096a5790505090506040518060400160405280600c81526020016b39b7bab931b2afb1b430b4b760a11b815250816000815181106109b9576109b9611285565b60200260200101819052506040518060400160405280600e81526020016d736f757263655f6164647265737360901b815250816001815181106109fe576109fe611285565b6020026020010181905250604051806040016040528060078152602001661c185e5b1bd85960ca1b81525081600281518110610a3c57610a3c611285565b602090810291909101015260408051600380825260808201909252600091816020015b6060815260200190600190039081610a5f57905050905060405180604001604052806006815260200165737472696e6760d01b81525081600081518110610aa857610aa8611285565b602002602001018190525060405180604001604052806006815260200165737472696e6760d01b81525081600181518110610ae557610ae5611285565b602002602001018190525060405180604001604052806005815260200164627974657360d81b81525081600281518110610b2157610b21611285565b60200260200101819052506060828285604051602001610b43939291906113d2565b60408051601f19818403018152908290529150610b6a90600160e01b908390602001611435565b604051602081830303815290604052945050505050919050565b828054610b9090610fdc565b90600052602060002090601f016020900481019282610bb25760008555610bf8565b82601f10610bcb57805160ff1916838001178555610bf8565b82800160010185558215610bf8579182015b82811115610bf8578251825591602001919060010190610bdd565b50610c04929150610c08565b5090565b5b80821115610c045760008155600101610c09565b60008083601f840112610c2f57600080fd5b50813567ffffffffffffffff811115610c4757600080fd5b602083019150836020828501011115610c5f57600080fd5b9250929050565b60008060008060008060008060008060c08b8d031215610c8557600080fd5b8a35995060208b013567ffffffffffffffff80821115610ca457600080fd5b610cb08e838f01610c1d565b909b50995060408d0135915080821115610cc957600080fd5b610cd58e838f01610c1d565b909950975060608d0135915080821115610cee57600080fd5b610cfa8e838f01610c1d565b909750955060808d0135915080821115610d1357600080fd5b50610d208d828e01610c1d565b9150809450508092505060a08b013590509295989b9194979a5092959850565b60005b83811015610d5b578181015183820152602001610d43565b83811115610d6a576000848401525b50505050565b60008151808452610d88816020860160208601610d40565b601f01601f19169290920160200192915050565b602081526000610daf6020830184610d70565b9392505050565b60008060008060008060006080888a031215610dd157600080fd5b87359650602088013567ffffffffffffffff80821115610df057600080fd5b610dfc8b838c01610c1d565b909850965060408a0135915080821115610e1557600080fd5b610e218b838c01610c1d565b909650945060608a0135915080821115610e3a57600080fd5b50610e478a828b01610c1d565b989b979a50959850939692959293505050565b60008060008060008060608789031215610e7357600080fd5b863567ffffffffffffffff80821115610e8b57600080fd5b610e978a838b01610c1d565b90985096506020890135915080821115610eb057600080fd5b610ebc8a838b01610c1d565b90965094506040890135915080821115610ed557600080fd5b50610ee289828a01610c1d565b979a9699509497509295939492505050565b604081526000610f076040830185610d70565b8281036020840152610f198185610d70565b95945050505050565b8183823760009101908152919050565b81835281816020850137506000828201602090810191909152601f909101601f19169091010190565b89815260c060208201526000610f7560c083018a8c610f32565b8281036040840152610f8881898b610f32565b90508660608401528281036080840152610fa3818688610f32565b9150508260a08301529a9950505050505050505050565b600060208284031215610fcc57600080fd5b81518015158114610daf57600080fd5b600181811c90821680610ff057607f821691505b6020821081141561101157634e487b7160e01b600052602260045260246000fd5b50919050565b868152608060208201526000611031608083018789610f32565b8281036040840152611044818688610f32565b915050826060830152979650505050505050565b60408152600061106b6040830186610d70565b828103602084015261107e818587610f32565b9695505050505050565b600060018060a01b03808a16835260a060208401526110ab60a08401898b610f32565b83810360408501526110be81888a610f32565b905083810360608501526110d28187610d70565b92505080841660808401525098975050505050505050565b6060815260006110fe606083018789610f32565b8281036020840152611111818688610f32565b905082810360408401526111258185610d70565b98975050505050505050565b634e487b7160e01b600052604160045260246000fd5b600082601f83011261115857600080fd5b813567ffffffffffffffff8082111561117357611173611131565b604051601f8301601f19908116603f0116810190828211818310171561119b5761119b611131565b816040528381528660208588010111156111b457600080fd5b836020870160208301376000602085830101528094505050505092915050565b600080604083850312156111e757600080fd5b823567ffffffffffffffff808211156111ff57600080fd5b61120b86838701611147565b9350602085013591508082111561122157600080fd5b5061122e85828601611147565b9150509250929050565b634e487b7160e01b600052601160045260246000fd5b600081600019048311821515161561126857611268611238565b500290565b6000821982111561128057611280611238565b500190565b634e487b7160e01b600052603260045260246000fd5b60006000198214156112af576112af611238565b5060010190565b60608152600080855481600182811c9150808316806112d657607f831692505b60208084108214156112f657634e487b7160e01b86526022600452602486fd5b6060880184905260808801828015611315576001811461132657611351565b60ff19871682528282019750611351565b60008d81526020902060005b8781101561134b57815484820152908601908401611332565b83019850505b50508786038189015250505050506113698186610d70565b9050828103604084015261107e8185610d70565b600081518084526020808501808196508360051b8101915082860160005b858110156113c55782840389526113b3848351610d70565b9885019893509084019060010161139b565b5091979650505050505050565b608081526013608082015272726563656976655f6d6573736167655f65766d60681b60a082015260c06020820152600061140f60c083018661137d565b8281036040840152611421818661137d565b9050828103606084015261107e8185610d70565b6001600160e01b0319831681528151600090611458816004850160208701610d40565b91909101600401939250505056fea264697066735822122071ba20334021b99ca94021a1dc706a003ea777fb63c7ec65bd0d49ef6ff7f28364736f6c63430008090033",
  "linkReferences": {},
  "deployedLinkReferences": {}
}